:020000040800F2
:10000000000200208122000839170008452200085C
:100010004522000845220008452200084522000824
:100020004522000845220008452200084522000814
:100030004522000845220008452200084522000804
:1000400045220008A91F0008D91F00084522000802
:1000500045220008391E00087D1E0008C11E000848
:1000600045220008651D0008991D0008E91D0008CB
:100070004522000809200008392000084522000810
:10008000711C00084522000845220008251D0008B3
:1000900045220008452200084522000845220008A4
:1000A0004522000845220008452200089D0300085B
:1000B0004522000845220008452200084522000884
:1000C00008B5036898420FD01A68026050601A7D24
:1000D000042A04D072B6054A054B1A62FEE70022D4
:1000E0009A61181C01F0C4FB08BDC046F02D000841
:1000F000F004002070B5041C72B6251C303501F0E8
:100100005BFB2B790026002B02D101232B710126EA
:1001100001F064FB62B6002E16D0237F082B08D8AE
:100120000126311CFC229940FF32114241D14A077D
:100130000BD472B601F040FB2B79002B01D00023C9
:100140002B7101F04BFB62B670BD72B601F034FB4F
:1001500001F07EFB636C261C3836002B02D0301C6D
:1001600001F0BCFC344A231C301C322101F04EFC4F
:10017000218A606802F00EF801F030FB62B60123BC
:10018000228A191C91408AB2E1680A83218AE068B8
:100190008B40191C202201F085FF00222423E25409
:1001A0000323237772B601F007FB2B79002BC6D10E
:1001B000C7E772B601F000FB218A606801F0D4FF46
:1001C000218A321C8A40111CE068012201F06AFF7A
:1001D000238A9E40E368B6B21E8301F039FB616C4E
:1001E000002905D001F034FB201C383001F076FCEA
:1001F00001F02EFB114B1A78023A022A16D802227D
:100200001A70DB6800221A601A61DA68FF218A43DB
:10021000DA6001F0E3FA62B60823237772B601F0E0
:10022000CBFA2B79002B00D089E78AE772B6044A13
:10023000044B14321A62FEE7F50000085C0400204B
:10024000F02D0008F004002070B5524B8900CC5806
:1002500082B0002C22D072B6251C303501F0ACFAE9
:100260002B790026002B02D101232B71012601F0EE
:10027000B5FA62B6002E11D0237F042B48D0052B8F
:1002800016D0032B0CD072B601F096FA2B79002B06
:1002900001D000232B7101F0A1FA62B602B070BD4B
:1002A0002423E25C0132D2B2032A6DD0E254EAE7A1
:1002B0002422A35C0133DBB2A354DA0740D5364ACB
:1002C000D268526AE2642C22A15C4900A154102B2E
:1002D000D9D172B601F070FA218A606801F044FF4A
:1002E00001F0B6FA626C002A05D001F0B1FA201CC8
:1002F000383001F0F3FB01F071FA62B6A36A2222F2
:10030000190AA1541B0E2322A35406232377BAE70C
:100310002422A35C0133DBB2A3541F4AD268D9075D
:100320001FD5526AA16AE2644A00A262402BAAD198
:1003300000232422A3542C22A35405232377A2E7CD
:10034000154AE16CD268526A8A1A9100E2648A18EE
:100350005200093A282ABAD92C22A15C0131A154B1
:10036000B5E7516A6A4689B2D1800632E16C1288DB
:10037000521A9100E2648A185200093A322AD5D9F9
:10038000A26A0132A262D1E70022E2540423A262EF
:10039000237778E76C0400205C040020F0B5454624
:1003A00057464E46E0B4F04601F02AFA654D6E6FAE
:1003B0003768F4693462220724D1E30545D4A206E4
:1003C00050D480233B4202D0234200D06EE063062B
:1003D00009D401F029FA404601F02CFC1CBC9046DF
:1003E0009946A246F0BD72B601F0E6F96A6CAB6CB4
:1003F0009A4200D18FE040239F43376001F0EEF92D
:1004000062B6E6E72307DB0FDB019946E30703D576
:100410004A4620231A439146A30703D54A46402360
:100420001A439146630704D580234A465B001A436A
:10043000914672B601F0C0F94348494601F0C2FA4C
:1004400001F0CCF962B6E305B9D572B601F0B4F9A2
:1004500080213D48890001F0B5FA01F0BFF962B68C
:10046000A206AED572B601F0A7F9B38CDBB29A46FC
:1004700001F0EEF96B699946002B38D001F0E8F9EC
:100480002B6A6A6A934241D04A4601326A615A1C19
:100490002A6252461A702B6AEA69934224D22B4888
:1004A000FFF70EFE01F09AF962B68AE772B601F024
:1004B00083F901F0CDF9AB6C6A6C9A4234D0AA6B27
:1004C0000132AA635A1CAA641B7899462B6C9A4283
:1004D00001D3EB6BAB641E48FFF7F2FD4A46328551
:1004E00001F07CF962B672E7AB692B62D7E7281D91
:1004F000042101F067FA6B69994601F0A9F92B6AAA
:100500006A6A9342C0D14A46002ABDD00E48802173
:1005100001F058FAC6E7AA6B002A00D16BE7281D44
:10052000102101F04FFA66E7AA6B002AC8D0281DF7
:10053000082101F047FAC0233A1C9A434023134391
:100540003360CDE77C050020800500208805002071
:10055000AC050020064B5A6A002A04D1996A00298A
:1005600001DD9A62704772B6024A1A62FEE7C0461F
:10057000F00400208030000808B5FFF7EBFF064BC1
:1005800019691A6889689268914201D362B608BDF8
:1005900072B6024A1A62FEE7F004002068300008D2
:1005A00008B5FFF7D7FF064B19691A688968926882
:1005B000914201D362B608BD72B6024A1A62FEE7E2
:1005C000F0040020E02E000808B5FFF7C3FF064B3B
:1005D00019691A6889689268914201D362B608BDA8
:1005E00072B6024A1A62FEE7F0040020402E0008AC
:1005F000064B5A6A002A02D19A6A002A03D072B6C0
:10060000034A1A62FEE701229A627047F004002052
:100610008830000870B5214C061C256972B6FFF7BA
:10062000E7FFAB6A002B0BD1002E18D001235B42F1
:10063000AB610A20311C01F0BFFA00281EDBAB6A57
:100640005E421E40B343AB62FFF784FF226923681A
:1006500092689B689A420DD362B6301C70BDFFF75A
:1006600079FF2269236892689B689A4212D362B626
:100670000020F3E772B60A4B2362FEE7FFF76AFF3A
:100680002269236892689B689A42F0D272B6044B42
:100690002362FEE772B6024B2362FEE7F0040020FD
:1006A000AC2E0008F0B545468846C1694E4657460F
:1006B000E0B4041C161C9A46894648D072B6FFF76F
:1006C00097FF284D0027A368002B27D06269013BC4
:1006D000A360531C636141460B7813706269236900
:1006E0009A4201D3E16861614A46002A01D0201C88
:1006F000C847FFF72FFF2A692B6892689B689A42C8
:1007000021D362B6013E0137002E16D00123984452
:1007100072B6FFF76DFFA368002BD7D1201C51469E
:1007200001F074FA0028CED0FFF714FF2A692B6875
:1007300092689B689A4210D362B6381C1CBC9046E3
:100740009946A246F0BD72B6074B2B62FEE772B621
:10075000064A044B24321A62FEE772B6024B2B6241
:10076000FEE7C046F0040020D42E0008F02D00085B
:1007700008B53030FFF796FF08BDC04608B53030E9
:10078000014BFFF78FFF08BDFFFF000010B572B6E9
:10079000FFF72EFF01F0DAF901F0D8F90B4C2268CF
:1007A000236992689B689A4201D301F0B5F8FFF77C
:1007B000D1FE2269236892689B689A4201D362B68F
:1007C00010BD72B6024B2362FEE7C046F004002063
:1007D00068300008420038B51318114A9B009C5835
:1007E0000D1C002C15D072B6FFF702FF627A61680B
:1007F000D2B2281C02F0B4FAFFF7ACFE094B19691B
:100800001A6889689268914205D362B6607AC0B26C
:1008100038BD0020FCE772B6034A1A62FEE7C04604
:1008200010070020F0040020E02E000810B5041C82
:1008300072B6FFF7DDFE002C0ED0211C082001F05F
:10084000BBF9FFF787FE094B19691A688968926836
:10085000914206D362B610BD72B6054A034B1A62C6
:10086000FEE772B6034A1A62FEE7C046F0040020B3
:100870005C30000868300008F0B544465F465646D4
:100880004D46F0B485B001930EAB1B7888460093BB
:10089000784B02921968012291431960764981468A
:1008A0009981196805240A431A6040221A62F022CD
:1008B0001A851E1C4027F3696E4D1F4216D1013C5C
:1008C0000A20A4B2FFF7B2FF002CF4D1AB8C2B6846
:1008D000012293432B60F0235B00AB81022005B023
:1008E0003CBC90469946A246AB46F0BDAB8C2A680C
:1008F00001218A432A60F0225200DBB2AA81032040
:10090000F02BECD04246002A00D1A3E05B4B5C4EBA
:100910009A469B464346013BDBB201334B4403936B
:100920000125494650460A785346FF24083004E022
:100930001C7001335208834207D0291C1140F7D1A3
:100940001970013352088342F7D133684D480122B0
:10095000034091444C4A33605168F0231B030B431E
:10096000536080233360494B08217160B3605B465C
:10097000F360474B80271C689046204018605468FD
:10098000F0200002204350609020186059604149D7
:10099000E02099605946D9603649BF0208628C68E8
:1009A000C0202043886030680524284330601868E0
:1009B000284318600B682B430B60424613683B4288
:1009C00016D1013C0A20E4B2FFF730FF002CF4D12D
:1009D0002F4B2C4A1968022011401960284B1968C6
:1009E0000A401A60234BC0219A688A439A6076E7CE
:1009F000274A244B1168194011603268C021134006
:100A000033601C4B9A688A4300999A60002923D16D
:100A1000019B002B23D08024504653460022644281
:100A2000083002E00133834208D019785208FF29C8
:100A3000F8D122430133D2B28342F6D1019B02990D
:100A4000013BDBB20193039B0A700131029199458E
:100A500000D066E7012042E7009AFF2A03D0009BFE
:100A6000013BDBB20093039B994500D059E701207D
:100A700035E7C0460038014088130000000400201C
:100A800058000240FEFF00000000024024380140F0
:100A9000440002402838014038B59024E4056369D9
:100AA0001025AB4363610120FFF7C0FE636901209D
:100AB0002B436361FFF7BAFE63690120AB436361B7
:100AC000FFF7B4FE38BDC046F8B59024E40563696D
:100AD0003F26B34363616369020913436361051CE5
:100AE00063692027012911D0BB436361FFF7D4FF5D
:100AF00063690F22B3436361636915401D436561F8
:100B00006369BB436361FFF7C7FFF8BD3B436361A4
:100B1000FFF7C2FF63690F22B34363616369154046
:100B20001D43656163691F436761ECE770B5041C91
:100B300088B00026002801D120E01E1C201C0A21BC
:100B400001F092FC0D1C30356B46EDB29D55201C1A
:100B50000A2101F045FC731C041EEED1741E00AB8B
:100B60006E461C19013E01E02578013C281C01213C
:100B7000FFF7AAFFB442F7D108B070BD30200121C1
:100B8000FFF7A2FFF8E7C04610B5041E06D108E043
:100B900001210134FFF798FF002C02D020780028B3
:100BA000F6D110BDF8B54F464646051CC0B4041C2E
:100BB0008946171C98462C35FF2606700130854261
:100BC000FBD14A46A318281C55229D4203D202702D
:100BD00001308342FBD172B6FFF70AFD00F038FE08
:100BE000002C3DD04B46AF2B3AD97F2F38D8424608
:100BF000002A35D04946214B24396118E16000268E
:100C00000B6202230A614E612375231C1C3325618C
:100C1000A7606675A6622362E36100F097FF184D36
:100C2000A66128698268974220D900F021FE836876
:100C3000011C2C61012B01D1124A1383012323755E
:100C4000EFF309830A69243B9A4213D8201C01F070
:100C50001FFCFFF791FC201C0CBC90469946F8BD88
:100C600072B6094A064B34321A62FEE7201C00F0C5
:100C7000FFFDEEE772B6054B2B62FEE7B1240008DC
:100C8000F004002000140048F02D00089030000807
:100C900010B5041C72B6FFF7ABFC0E4A1368002BAC
:100CA00015D00D491A698B60002A04D01B691A6996
:100CB000002AFBD18B601C6100232361FFF770FCCD
:100CC00023785A00D318054A9B009C5010BD14602D
:100CD000F2E7C04690070020000400201007002023
:100CE000F8B54F464646C0B472B6FFF781FC804D5A
:100CF0003423EA5C0026002A02D10122EA540126AC
:100D0000FFF728FC7B4C2269236892689B689A4213
:100D100007D362B6002E08D101200CBC904699463C
:100D2000F8BD72B6744B2362FEE7EF8B72B6734E5A
:100D3000FFF75EFC726A9046FFF70CFC226923689D
:100D400092689B689A4218D362B6424693B29F4219
:100D500017D372B6FFF74CFC3423EA5C002A01D0AB
:100D60000022EA54FFF7F6FB2269236892689B6829
:100D70009A4200D2B8E062B6CEE772B65E4B23620A
:100D8000FEE772B6FFF734FC766AFFF7E3FB2269F1
:100D9000236892689B68B6B29A4200D2A0E062B61D
:100DA00057482B8CFA2158438900013801F018FB71
:100DB00001363618EE8324230026EE54298A0223B6
:100DC00001272B7799463B1C8B40191CE8680122B0
:100DD00001F068F92B8A3A1C9A4093B2EA6853836F
:100DE00072B6FFF705FC5023984642464B46AB547B
:100DF000EB6DFF211E601E61DA688A43DA60FFF73F
:100E0000A9FB2269236892689B689A4264D362B600
:100E100072B6FFF7EDFB00F01BFD4246AB5C022B08
:100E200004D072B6344B0C332362FEE703234246F0
:100E3000AB54EB6D334ADA626A6D5F6152685E6291
:100E40001E61002A02D0DA681743DF6005221A60AB
:100E5000FFF780FB2269236892689B689A4236D329
:100E600062B672B6FFF7C4FB00F0F2FC6B6C002BAD
:100E700003D0281C383000F031FE281C224A2B1CDD
:100E80003830FA2100F0C2FDFFF764FB22692368C5
:100E900092689B689A4216D362B672B6FFF7A8FBB7
:100EA0003423EA5C002A01D00022EA54FFF752FB07
:100EB0002269236892689B689A4200D35BE772B606
:100EC0000D4B2362FEE772B60B4B2362FEE772B650
:100ED000094B20332362FEE772B6074B2362FEE71D
:100EE00072B6054B2362FEE772B6034B2362FEE740
:100EF0000C040020F0040020402E000800040040F4
:100F0000102700004FC30000F5000008F0B556465A
:100F10004D4644465F46F0B4924883B0FFF786FCE6
:100F2000914C0A2323829023DB05E3608F4B012140
:100F300063600723A360FA239B0023848C4B502615
:100F4000E3658C4BA155884680229969D202002521
:100F5000114365659961D9680A43DA60DD60864BA3
:100F6000A36572B6FFF744FBA35D013B012B05D9D6
:100F700072B6824A824B2C321A62FEE77F4F814959
:100F80003B1C38336365A36D181C994601F028FAA1
:100F9000421E92B27B49531C4B43994504D072B612
:100FA000774B48371F62FEE7E36D1D605D609A6214
:100FB0001D61DD600223A355FFF7CCFA704E326944
:100FC000336892689B689A4200D2B6E062B672B605
:100FD0003425FFF70DFB615DA9468B46002945D1FD
:100FE00043466355FFF7F0FA5D462223E554232379
:100FF000E554218A42468B008A40E318111CE068C0
:101000000122E5831C6601F04DF8A56803232B43FC
:1010100063615D4BA36172B6FFF7EAFA218A6068EB
:101020000191002802D01B2900D88AE072B65837F7
:101030003762FEE7019A4568D3001421ED180919BB
:101040000CC90CC5019901F0A5F84546218A6068D4
:1010500001F08AF8FFF7B8FA257772B6FFF7C8FAF9
:101060004946635C002B01D05A466254FFF7ACFA44
:10107000FFF736FE72B6FFF7BBFA336900229A62B9
:10108000FFF768FA3269336892689B689A4260D3C6
:1010900062B63E4B33499846502223233C4D8B4643
:1010A00091469A462F48FFF7C1FB5146635C4A467A
:1010B000AB542222A25C5123EA54227F062A38D064
:1010C0006A6D01326A655822A95A0131A95200227B
:1010D00049466A54B322EA5472B6FFF789FA51239B
:1010E000EB5642469B009BB2494653806B569BB2DF
:1010F00093805823D288EB5A9A4202D94146CB8832
:101100009BB24246D3806B6D9360FFF723FA32693E
:10111000336892689B689A421FD362B6414608883A
:101120005A460138504380B2FFF774FAFFF7D8FDF2
:10113000B8E700225823EA52CEE772B6203737626A
:10114000FEE70378022B00D174E772B65837376296
:10115000FEE772B66C373762FEE772B678373762F1
:10116000FEE7C046102700000C04002048050020C0
:101170000048014000100240006CDC02402E0008D4
:10118000F0040020A0860100490200088009002028
:101190008C040020F0B54E4645465746E0B4151C79
:1011A000C269041C0E1C98469146002D43D072B6AD
:1011B000013DAD19FFF71CFAAA46274D00274B4603
:1011C000002B08D0201CC84705E0201C414600F039
:1011D0001DFD002820D1A268002AF6D0A369013A9B
:1011E000A2605A1CA2611B783370A26923699A42DB
:1011F00001D3E268A261FFF7ADF92A692B68926812
:101200009B689A421DD362B6013756450DD0013610
:1012100072B6FFF7EDF9D2E7FFF79CF92A692B6860
:1012200092689B689A4211D362B6381C1CBC9046E7
:101230009946A246F0BD72B6084A074B04321A62BC
:10124000FEE772B6054B14332B62FEE772B6034B12
:1012500014332B62FEE7C046F0040020C02E0008C5
:1012600008B50C30FFF796FF08BDC04608B50C3036
:10127000014BFFF78FFF08BDFFFF000070B5041C96
:101280000E1C72B6FFF7B4F9E369002B08D0201CDE
:10129000984705E0201C311C00F0B8FC051E19DB46
:1012A000A368002BF6D0A269013BA360531CA36185
:1012B00015782269934201D3E368A361FFF74AF9E5
:1012C0000E4B19691A6889689268914210D362B608
:1012D000281C70BDFFF73EF9084B19691A68896828
:1012E00092689142F3D272B6054A14321A62FEE74E
:1012F00072B6034A14321A62FEE7C046F0040020B8
:10130000C02E000808B50C30FFF7B8FF08BDC04676
:1013100008B50C300149FFF7B1FF08BDFFFF000021
:10132000F8B5041C0F1C161C72B6FFF761F905E036
:10133000201C311C00F06AFC051E20DBA368002B7A
:10134000F6D0013BA36063695A1C62611F70626939
:1013500023699A4201D3E2686261E369002B01D0FC
:10136000201C9847FFF7F6F80F4B19691A6889682F
:101370009268914213D362B60025281CF8BDFFF78E
:10138000E9F8094B19691A6889689268914201D392
:1013900062B6F2E772B6054A14321A62FEE772B616
:1013A000024A14321A62FEE7F0040020C02E000840
:1013B00008B53030FFF7B4FF08BDC04608B530307F
:1013C000014AFFF7ADFF08BDFFFF0000F0B54F4633
:1013D0004646C0B446003C4F3618B5007D196A68D1
:1013E00083B08946002A64D072B6FFF701F9374C02
:1013F000B046AB682E1C1B680836002B1DD0FFF7CB
:10140000A9F82269236892689B689A422ED362B633
:1014100072B6FFF7EDF800F099FB00F097FB226839
:10142000236992689B689A42E3D300F075FAAB682F
:101430002E1C1B680836002BE1D16868042100F0DF
:1014400093FA23484B465843FA218900013800F0AB
:10145000C7FF3568411C01952A6889B22369002AB3
:1014600009D072B61B4B2C332362FEE772B6194BC0
:1014700020332362FEE7002923D001AA2B6003203A
:101480009A6100F099FB42469300FF18BD68061C64
:1014900000232B60FFF75EF82269236892689B683F
:1014A0009A4209D362B6301C03B00CBC90469946F0
:1014B000F0BD03267642F6E772B6064B2033236270
:1014C000FEE701267642E3E710070020F004002043
:1014D00010270000C02E0008F0B5784B8022596913
:1014E00092020A4356464D4644465F46F0B45A615E
:1014F00099698022D2010A439A615A6901242243E0
:101500005A619A699020224380219A618900AE2213
:1015100087B0C00500F0C6FD694BC0221968D20033
:101520000A431A60674B1A68A2431A605968664AF0
:101530001140802292010A435A601968634A11409F
:101540000C220A431A609968614A0A409A60F022A4
:1015500052009A81996808220A439A601A681443D3
:101560005C4A1C60151C92464435FF2402E05A4830
:10157000FFF75CF90094281C052100220023FFF7E7
:101580007BF90128F3D1554B554A9946554DFF2318
:10159000554C564E05AF9346984628884E4A5043C0
:1015A00080B2FFF737F8039005E00A20FFF73EF915
:1015B000E36D0133E3654346009348460221002270
:1015C0000023FFF759F90128EFD1FA20C000FFF7F7
:1015D0002DF90A23504600934C300C213A1C02236B
:1015E000FFF74AF9012838D0E36D0133E365602342
:1015F000E25A0132E25272B6FEF7FAFF6023AA887D
:10160000E35A9A4201D9AB889BB2AB80039AE36D4F
:10161000AB60042A0ED0FEF79DFF326933689268F2
:101620009B689A4201D362B6B7E772B653465C3301
:101630003362FEE75B4618680028ECD0037D032B7D
:1016400004D072B6534668333362FEE700235A462D
:101650008361136000F00CF9DDE70022BB5E9B1094
:101660003B8072B6FEF7C4FF6B886B880022B85EC1
:101670001BB2C01A01F06CFB282813DDE36D0133A7
:10168000E3656023E25A0132E25263235B426B80DE
:10169000FEF760FF3269336892689B689A4207D30D
:1016A00062B6A8E760230022E2523B886B80EFE736
:1016B00072B653465C333362FEE7C0460010024008
:1016C0000000014000380140FFCFFFFFFFE9FFFFAE
:1016D000FFFCFFFFC02E000810270000A03000080C
:1016E00068090020A80700208C040020F0040020D6
:1016F000054BDA68910702D50022DA60704772B6AE
:10170000024A034B1A62FEE700040040402F000823
:10171000F0040020054BDA68910701D55863704743
:1017200072B6034A034B0C321A62FEE70004004013
:10173000402F0008F0040020EFF30983203383F3E7
:10174000098862B67047C04630BFFDE7024B802271
:1017500019680A431A60704700380140134A38B5C7
:10176000116910688C6803685A6013601061012C5D
:1017700001D10F4D2C830125057500250D7500E065
:101780001B689D68AC42FBD35C680B604C60596081
:101790002160EFF309830C69243B9C4202D800F0DE
:1017A00077FE38BD72B6034B1362FEE7F0040020EB
:1017B0000014004890300008064B5A6A002A02DDE7
:1017C0009A6A002A03D072B6034A1A62FEE701221F
:1017D0009A627047F0040020B0300008064B5A6A45
:1017E000002A05DD9A6A002A02DD00229A6270470B
:1017F00072B6024A1A62FEE7F0040020B830000810
:1018000072B6074B5A6A002A02DB996A002903D094
:1018100072B6044A1A62FEE701325A6262B6704733
:10182000F0040020C030000872B6074B5A6A002A44
:1018300002DD996A002903D072B6044A1A62FEE7F3
:10184000013A5A6262B67047F0040020C8300008BE
:10185000054B5A6A002A03DB9A6A002A00DD7047AA
:1018600072B6024A1A62FEE7F0040020D030000887
:1018700010B5041CFFF7ECFF002C19D0237D002BC2
:1018800010D00F2B0ED000232375A2680B4B1B68C2
:1018900099689142FBD25A6823606260201C5C60A8
:1018A000146010BD72B6064A044B18321A62FEE785
:1018B00072B6034A014B18321A62FEE7F0040020A8
:1018C000402F000838B5041C72B6FFF775FF237D62
:1018D000032B1CD018D9042B07D0052B0AD1A569DE
:1018E000FFF7B6FFAB680133AB60226863681A602C
:1018F0002268536001235B42A361201CFFF7B8FFFD
:10190000FFF76CFF62B638BD002BF9D0F2E7A36990
:1019100000221A60EEE7C04638B5104C23682569EE
:101920001A6854602260AA682361012A01D10C4917
:101930000A8301221A75281CFFF79AFFEFF3098327
:101940002A69243B9A4204D8291C206900F0A0FD92
:1019500038BD72B6034B2362FEE7C046F004002098
:10196000001400489030000838B5041C0D1CFFF727
:101970006FFF002C1BD0A16A237D2943A1620A2B93
:101980000CD00B2B00D038BDA36919408B42FAD183
:101990000023A361201CFFF76BFFF4E7A3690B4250
:1019A000F1D00023A361201CFFF762FFEBE772B6C2
:1019B000024A034B24321A62FEE7C046402F000859
:1019C000F004002070B5061C0D1CFFF741FF002E2F
:1019D00012D03468A6420ED0E3682B43E360002D9A
:1019E00002D022691A4203D06068A168FFF7BCFFE9
:1019F0002468A642F0D170BD72B6024A024B34325E
:101A00001A62FEE7402F0008F0040020F0B54746B8
:101A100080B4061C0C1C151C1F1CFFF719FF002EA0
:101A200003D0002D01D0002C05D172B6274A284BD7
:101A30004C321A62FEE7274B37615B6A244FF56030
:101A40009BB27D69012C1FD9234A954220D052892F
:101A50009B1AE4182B89A4B29C4204D22BE02D6877
:101A6000E41A2B89A4B2A342F9D36B683560736082
:101A70006E601E6034812B891C1B01235B422C810C
:101A8000BB8304BC9046F0BD134A02249542DED1CC
:101A90002A1C143AD383E3189BB29C460D4B0221B7
:101AA000D868884608400CD16146596341461861A0
:101AB000D960938BD7E7A21890B2FFF72BFE2B8942
:101AC000D1E772B6014B58331362FEE7402F00088E
:101AD000F0040020000400400405002010B5041CA0
:101AE000FFF7B6FE002C1DD0E368002B20D0236842
:101AF00021891A898A181A816268136023685A60DA
:101B00000023E36001220F4B52429A83191C5A6949
:101B100014318A4212D01089DB8BC01880B2FFF7D3
:101B2000F9FD10BD72B6084A064B68321A62FEE72C
:101B300072B6054A034B68321A62FEE7FFF7D8FD1A
:101B4000EFE7C046F0040020402F0008054B5A6A1A
:101B5000002A03D19A6A002A00DD704772B6024A51
:101B60001A62FEE7F0040020D830000810B5041C0B
:101B7000FFF7ECFF0D4B1868196902680C751A60C5
:101B8000536082681861012A01D1094C2285012223
:101B90000275EFF309820C69243A944202D800F0EE
:101BA00077FC10BD72B6034A1A62FEE7F00400200B
:101BB000001400489030000870B586B0061C0C1C5C
:101BC000FFF7C4FF0E4B9C4215D00E4D211C2B6914
:101BD0000D4A01A8FFF71AFF301CFFF7C7FFFFF7F8
:101BE00037FE049B002B02D001A8FFF777FF2B697B
:101BF000986906B070BD301CFFF7B8FF014DF6E7DD
:101C0000FFFF0000F0040020C518000808B50029F7
:101C10000AD0074B42681B6918605A604360136022
:101C20000420FFF7C9FF08BD01204042FBE7C04682
:101C3000F00400200F3011D072B6EFF30983203B7F
:101C400083F3098880225204DA61064A1168126916
:101C500089689268914202D8034A9A617047034AA0
:101C60009A61FBE7F0040020CA240008BF240008A2
:101C7000F8B5564644465F464D46F0B4264CF2460B
:101C8000FFF7BEFD0023236172B6FFF795FDFFF756
:101C9000DFFDFFF7DDFD214D636AEA8B6C699BB2C6
:101CA0009E1A99462389B6B29E421CD300212F1C4E
:101CB0008846143700E0EA8BF61AD318EB83E36802
:101CC00041469B462368E1605F60B6B26B61FFF7F7
:101CD00085FD62B62069D84772B6FFF76DFD6C6965
:101CE0002389B342E7D90E4A944211D04B4498B2AB
:101CF000FFF710FDFFF772FD62B6FFF795FD504646
:101D0000FFF798FF3CBC90469946A246AB46F8BD0B
:101D1000FFF7EEFCEEE7C04600040040F0040020B0
:101D20000405002010B57446FFF76AFD0C4B002136
:101D3000DA6818781161042807D102201870116040
:101D40001161D168FF208143D1605A68181C526824
:101D50009047FFF769FD201CFFF76CFF10BDC046E0
:101D60005005002010B57446FFF74AFD084B0F21BF
:101D70001A681140074A59601368002B01D0506857
:101D80009847FFF751FD201CFFF754FF10BDC046D8
:101D9000000002402005002010B57446FFF730FD1A
:101DA0000F4B19680906090F07D00A015A600D4A3E
:101DB0009368002B01D0D0689847094B1968090532
:101DC000090F07D00A025A60064A1369002B01D096
:101DD00050699847FFF728FD201CFFF72BFF10BD27
:101DE000000002402005002010B57446FFF708FDF2
:101DF0000F4B19680904090F07D00A035A600D4AEE
:101E00009369002B01D0D0699847094B19680903E1
:101E1000090F07D00A045A60064A136A002B01D042
:101E2000506A9847FFF700FD201CFFF703FF10BD25
:101E3000000002402005002038B57546FFF7E0FCA1
:101E40000C4B03225C6922405A61E3070CD4A307C0
:101E500004D5094801214368DB689847FFF7E4FC93
:101E6000281CFFF7E7FE38BD0348002143685B6884
:101E70009847ECE7000401404805002038B5754656
:101E8000FFF7BEFC0C4B0C225C6922405A616307D1
:101E90000CD4230704D5094803214368DB6998471C
:101EA000FFF7C2FC281CFFF7C5FE38BD034802211E
:101EB00043685B699847ECE700040140480500204F
:101EC00038B57546FFF79CFC344B354A5C692240B7
:101ED0005A61E3065CD4A30654D463064CD42306AB
:101EE00044D4E3053CD4A30534D463052CD42305A2
:101EF00024D4E3041CD4A30414D463040CD4230416
:101F000004D528480F214368DB6F9847FFF78CFC06
:101F1000281CFFF78FFE38BD22480E2143685B6FF7
:101F20009847ECE71F480D214368DB6E9847E4E7CC
:101F30001C480C2143685B6E9847DCE719480B216D
:101F40004368DB6D9847D4E716480A2143685B6D08
:101F50009847CCE7134809214368DB6C9847C4E7EE
:101F60001048082143685B6C9847BCE70D4807217F
:101F70004368DB6B9847B4E70A48062143685B6B0C
:101F80009847ACE7074805214368DB6A9847A4E710
:101F90000448042143685B6A98479CE700040140B9
:101FA000F0FF00004805002010B57446FFF728FC3C
:101FB0000748084B802252025A61436884229A588B
:101FC00010219047FFF730FC201CFFF733FE10BDB7
:101FD000480500200004014010B57446FFF710FCCE
:101FE0000748084B802292025A6143688C229A5813
:101FF00011219047FFF718FC201CFFF71BFE10BDB6
:10200000480500200004014010B57446FFF7F8FBB6
:10201000074B0222074852421A6143689B68002B13
:1020200000D09847FFF700FC201CFFF703FE10BD0F
:10203000002C01406005002038B57546FFF7E0FB35
:10204000164B1C69DA6814401E222240D2431A61E2
:10205000A30705D5124843681B69002B00D0984799
:10206000630705D50E4843689B69002B00D098474D
:10207000230705D50A4843681B6A002B00D0984700
:10208000E30605D5064843689B6A002B00D09847B5
:10209000FFF7CAFB281CFFF7CDFD38BD002C01401F
:1020A00060050020F0B556464D465F464446F0B404
:1020B00003275607D506540617405205120F07236B
:1020C00083B0A40F924600229946F60FAD0F0194FB
:1020D000131C2BE0026AA243444622430262446876
:1020E00001229A4094433443446082685C009046E5
:1020F0000322A240D243444614402C4384609446B9
:10210000C268141C62461440019A1443C4600468F7
:10211000221C644622403A43026049081CD0019ABE
:1021200076009200AD000192BF00013301240C4201
:10213000F3D04A461A40920054469440A0460F24D9
:102140009440A446072BC5D9426A141C62469443A6
:10215000424614434462C2E703B03CBC90469946F1
:10216000A246AB46F0BDC046094B012218688A4022
:10217000111CD2431040186058681040586098688D
:1021800010409860D8680240DA6059617047C046D4
:1021900000040140F0B50F291ED94068CA008358D9
:1021A00001241C422FD0254D8C40AE68211C3443A5
:1021B000AC60CD439C0730D5204B8218DC680C43C3
:1021C000DC605368002B30D01C4B1A681143196037
:1021D0005A6815405D60F0BD194E8C0840680325B3
:1021E000A400A4190D40CA00AD00A66883580F27AB
:1021F000AF40BE431F063F0FAF403D1C3543A560B7
:1022000001241C42CFD10D4E8C40B768E543211C00
:102210003C1C2C40B4609C07CED4084B8218DC6870
:102220002C40DC605368002BCED1044B5A6811431C
:1022300059601A6815401D60CDE7C0460004014092
:1022400000000140FEE7C046000000000000000062
:1022500008B5FFF783FA08BD38B5051C72B6FEF75E
:10226000C7F9054C0F2023699D61FFF77FFC72B60B
:10227000024B2362FEE7C046F0040020C02F000896
:1022800072B6494C201C84F30988022383F3148816
:10229000BFF36F8F454D01232A68022113432B6042
:1022A0002B68424A1942FBD01368F9210B40136096
:1022B000002353600C2553683C491D42FBD14A6AF8
:1022C000012313434B6202254B6A384A1D42FBD05F
:1022D000A1239B0353600023D362136311688023FF
:1022E0005B040B4380251360AD0413682F492B4218
:1022F000FBD02F4B11221A604A68022313434B6014
:102300000C254B68294A2B40082BFAD191690123EF
:102310000B439361274B284A934209D21D1DD11CC0
:10232000491B89088900254A691804C38B42FCD1DE
:10233000234BA34209D21A1DC11C891A890889009E
:1023400051181E4A04C38B42FCD11E4A1E4B9A42AE
:102350000BD2D043C018800801301C4980000023F4
:10236000CC58D45004338342FAD1194B194A9342C2
:1023700009D2181DD11C091A8908890041180022A8
:1023800004C38B42FCD1144D144B9D420AD2EE4340
:10239000F618B60801360024A300EB58013498471C
:1023A000B442F9D100F09CF8000400200010024073
:1023B0000020024000000020000200205555555525
:1023C0000002002000040020000400205831000812
:1023D00000040020600B0020C0000008C0000008BE
:1023E000002934D00123002210B488422CD30124C8
:1023F0002407A14204D2814202D209011B01F8E75D
:10240000E400A14204D2814202D249005B00F8E715
:10241000884201D3401A1A434C08A04202D3001B41
:102420005C0822438C08A04202D3001B9C08224374
:10243000CC08A04202D3001BDC082243002803D0B2
:102440001B0901D00909E3E7101C10BC70470028E4
:1024500001D00020C04307B4024802A140180290F6
:1024600003BDC0461D0000000029F0D003B5FFF7F2
:10247000B9FF0EBC4243891A1847C046000000004D
:102480007047C0460000000000000000000000008F
:10249000F0B544464D4656465F46F0B46B46CB60B9
:1024A000C3689D46F0BCA046A946B246BB46F0BDF7
:1024B000FEF750F862B6281CA047FFF7CDFEFEF7E6
:1024C00097F8FFF7C5FEFEF745F8024A024B136086
:1024D000FEE7C04604ED00E00000008000000000C0
:1024E000F0B5E44B01219A6A4942002244465F4616
:1024F00056464D46F0B499629A62186919611A619C
:10250000D968DD48BBB00143D960DA60D869802161
:1025100049050143D961D94980200C684000204316
:102520000860186AC021890008408021890088421B
:1025300003D08021490219621A62CE4B8022196AA7
:102540001202114207D1186A8021890001431962E1
:10255000196A0A431A62CA48CA4A0023C36213604E
:10256000C94A03631360C94A83631360C84A03649A
:102570001360C84A8364834613600365C64A01201A
:1025800040425060BB4ABC215469C9032143516198
:10259000C2499022D20553609160C1495C46D16026
:1025A000C0495D465161C049136253621160BF4A20
:1025B000082153609360D160BD4951611362BD49E8
:1025C00053621060BC4A53609360D36051611362E0
:1025D00053621060B94A53609360D36051611362D3
:1025E00053621060B64A012153609360D360536117
:1025F0001362536213605822A154B24AE365E26643
:102600006022A1547022A1545A4663666367E3674F
:10261000703204241474AC4C8822AC50AB4DAC4ADC
:102620002C1C0C34D460141C10341461141C183489
:10263000D4619461141C603411751362D462146304
:102640005462141C70349462146554659464141CB0
:102650008034D4649F4C161C94650C369E4C966353
:10266000D66580269451B1469C4C8426B046261CE3
:10267000444616519A4C536323616361994B171C6E
:10268000A3612B1C3833E3612B1C44332362964B2C
:102690003C376362954B1764D763A3621027944B52
:1026A0005764CA2220812173E3625A6253225A621C
:1026B000DA68174212D1DA684E461643DE604021CE
:1026C000D8688B4A0142FBD000239360D360894BCA
:1026D000802113611361D3688B43D3609020C005C0
:1026E00008211922FFF7DEFC704802211922FFF7AA
:1026F000D9FC9020C00504211922FFF7D3FC7048B3
:1027000001211922FFF7CEFC5A4B0226DA6901217A
:102710003243DA61784B794AD0209A62654A802741
:10272000DA6200229A615A63DA605A60596119606C
:10273000734B80001F508020C02740027F00D8517B
:102740001860704B70481F6A384018625B465846E4
:1027500014338361436101235B4283834023A3637A
:10276000231C30338260C2834060006000205875B3
:1027700058461975A2650361221C644B416A4C32AC
:102780002265E2642364002902D1826A002A04D00F
:1027900072B65F4B5C462362FEE762B6201CC02126
:1027A00001225C4B6030FEF7FDF972B6FDF720FFA9
:1027B000584603699E60FFF7C9F9FFF749F8594683
:1027C0000B689B68022B01D9FEF7C8FFFDF7D4FE0A
:1027D000514E0021331C301C203398301960596051
:1027E0000C3300228342F9D14C4C2B1C201C683343
:1027F0000C3022736275E261A361FEF749FA02A808
:102800000021E02200F054FA72B6FDF7F1FE5A46BC
:102810005823D35C5A1E012A04D972B678355B4618
:102820001D62FEE702AD5846C565012B1BD1344B36
:10283000C522C02192009950C022520020209850F9
:102840001860C62080001950402098501860C7209A
:1028500080001950802098501860C22080001950C4
:1028600004219950196004215F4602AB0025884677
:1028700058375CE000100240FFFFBFFF00700040CF
:10288000F0040020080002401C000240300002401A
:102890004400024058000240000002400300003C97
:1028A00001080024DFFF0000FDF7FFEB00040048F3
:1028B000FDFF0000FFFF000000080048000C00487A
:1028C0000014004800200040002C0140C02F0008E8
:1028D000700500204D17000800380140006CDC0234
:1028E000F0050020003001400A1000001810000020
:1028F00000280040FF031F0000040040BF1200003A
:1029000000E100E000ED00E0FFFF00FF000200201A
:10291000E030000849170008F0060020700700208A
:102920000135FFF737FC1C2D0DD05846C36DEA006A
:10293000D3584246381C291C1342F1D10135FFF708
:1029400013FC1C2DF1D1022258235946CA54FDF71D
:1029500001FE5B461A691B6892689B689A4200D226
:1029600016E162B6256A002D04D1FDF70FFF206A3B
:102970000028FAD0BC4B8022596992029025ED05BF
:102980000A435A613F21281C0122FFF78BFB6B6928
:102990003F2293436B619620FDF748FF6B6920222D
:1029A00093436B616B69102293436B6103236B61EB
:1029B000FEF772F83220FDF739FFFEF76DF80120BF
:1029C000FDF734FFFEF768F80120FDF72FFF022026
:1029D00068618146FEF760F80120FDF727FF282097
:1029E0000021FEF771F80E200021FEF76DF8062099
:1029F0000021FEF769F801200021FEF765F80021AB
:102A00000220FEF761F801222423E254974B201C98
:102A10002363231C38332430A3620C224B464272BA
:102A20000372012300275B42B4252587984667631C
:102A30006387FEF72DF9201CD82149007F228C4B9B
:102A40004830FEF7AFF8AA468A4D30632B1C783326
:102A50007363AF67FDF79AFE07227C23864CEA5426
:102A6000864A8C23EF508823EA50221C10328023A0
:102A7000281CEA507C30424651460C234D46437296
:102A800005722182E782A761A2826282FEF700F9C5
:102A9000201CD82149007F22794B2030FEF782F894
:102AA000784CB067231C5033F3672765FDF76EFE43
:102AB00072B6FDF79DFD744B5D465B6A9BB298460E
:102AC000FDF748FD2A692B6892689B689A4200D2FC
:102AD000BAE062B654226D46121906359246FA21C2
:102AE000890001204D26FEF771FC7642534651467F
:102AF00001205E80FDF76EFE64490720FEF766FC4C
:102B0000211C60314E80072000268E80FDF762FE7A
:102B1000E36E802001330021E366FDF7D5FF5C48BA
:102B2000FEF732F82E80564673889BB22B802E8893
:102B300036B2B61032D07742002E02DB371E00D1FB
:102B400087E000208146381C0A21FFF78DFC4B46A8
:102B5000303102AAD154381C0A21FFF741FC071C6E
:102B600001208144002FEED14F46013F2B20002E43
:102B700000DA2D200121FDF7A7FF3E1C791C11D0A2
:102B800002AA905D0121FDF79FFF013EF8D209E006
:102B900072B6404B5C4604332362FEE730200121CD
:102BA000FDF792FF3C48FDF7EFFF2B88032213400F
:102BB0009A00D31898001818FDF7B8FF3748FDF7AA
:102BC000E3FF261C0021C020FDF77EFF603634485D
:102BD000FDF7DAFF708800B28010FDF7A7FF3148DB
:102BE000FDF7D2FFB08880B2FDF7A0FF2E48FDF7B9
:102BF000CBFF2E4B1E1C4644B6B272B6FDF7F8FC56
:102C0000214B40465B6A1A04120C99B2121A331A0D
:102C10009A4211DBFDF79EFC5B461A691B689268BD
:102C20009B689A4202D362B6B04658E772B6194B17
:102C30005C4628332362FEE7711A89B200290CD062
:102C40000820FEF7B9FFE5E772B6124B10332B628E
:102C5000FEE701277F422B208CE772B60D4B5946C9
:102C60001C330B62FEE7C04600100240E83000084B
:102C7000D9140008F008002070090020083100086D
:102C80000D0F0008F00A002000040040B80B0000FF
:102C900020310008403000082C3100083031000895
:102CA000403100084831000850310008A086FFFF7D
:102CB000F0B5830746D0541E002A42D0CEB2031C82
:102CC000032503E0621E002C3BD0141C01335A1E66
:102CD00016702B42F6D1032C2BD9FF250D402A026A
:102CE00015432A0415430F2C15D9271C103F3F0903
:102CF0001E1C3A011036B6181A1C156055609560F6
:102D0000D5601032B242F8D101373F010F22DB19F2
:102D10001440032C0DD9271FBF08BA001E1DB6187A
:102D20001A1C20C2B242FCD10137BF000322DB19BA
:102D30001440002C05D01C19C9B219700133A342EC
:102D4000FBD1F0BD141C031CC5E7C0460000000009
:102D5000C317C01858407047000000000000000072
:102D6000F0B50F2A35D9031C0B439C0735D1161C2F
:102D7000103E36093501451910350C1C031C276817
:102D80001F6067685F60A7689F60E7681034DF6056
:102D90001033AB42F3D1731C1B01C518C9180F23A4
:102DA0001340032B1BD91C1FA4080134A4000023CB
:102DB000CE58EE500433A342FAD1ED18C9180323BC
:102DC0001A4005D00023CC5CEC5401339342FAD175
:102DD000F0BD051C002AF5D1FAE7051CF2E71A1C24
:102DE000F8E7C046000000000000000000000000FE
:102DF0006368546864446F446571756575654E65B4
:102E00007874490067707453746F7054696D65729B
:102E1000490000006F71577269746554696D656F80
:102E20007574000063685468644372656174654931
:102E30000000000000000000000000000000000092
:102E40006368537973556E6C6F636B00677074536E
:102E500074617274436F6E74696E756F7573490037
:102E60006368537973556E6C6F636B00677074534E
:102E70007461727400000000A08601000000000070
:102E800000000000000000006770745F6C6C645FFD
:102E900073746172740000006578745365744368DC
:102EA000616E6E656C4D6F646549000063685379AF
:102EB00073556E6C6F636B006368537973556E6CFA
:102EC0006F636B0069715265616454696D656F75FC
:102ED000740000006368537973556E6C6F636B0008
:102EE0006368537973556E6C6F636B0063685468E5
:102EF0006453757370656E6454696D656F75745352
:102F000000000000CC4E00003F00000055288B2D33
:102F1000BF030000F7BEFFFF0000000063685379A5
:102F200073556E6C6F636B006368546864526573AD
:102F3000756D654900000000000000000000000001
:102F4000737453746F70416C61726D007374536568
:102F500074416C61726D000063685363685265610F
:102F60006479490063684576745369676E616C499A
:102F700000000000636845767442726F61646361AB
:102F80007374466C616773490000000063685654AF
:102F9000446F5365744900007374537461727441D3
:102FA0006C61726D0000000063685654446F526596
:102FB000736574490000000000000000000000007C
:102FC0006368546864457869745300007D0700089D
:102FD0006D120008BD13000811130008B11300089A
:102FE000051300087107000861120008080002407C
:102FF00004000240000009001C00024004000240DE
:1030000004010A00300002400400024008020A00E5
:1030100044000240040002400C030B005800024030
:103020000400024010040B005465737420426F6169
:10303000726420310000000065787453746172740A
:10304000000000006368537973556E6C6F636B000A
:103050006368537973556E6C6F636B006368546873
:1030600064536C65657053006368537973556E6C77
:103070006F636B0000000000000000000000000013
:10308000535623350000000053562334000000003F
:10309000737461636B206F766572666C6F77000086
:1030A000CC44000000000000000000000000000010
:1030B000535623360000000053562337000000000B
:1030C00053562338000000005356233900000000F7
:1030D0005356233130000000535623313100000095
:1030E00053562333000000003420466C6F6F72206B
:1030F00054656D702053656E736F72732044533145
:1031000038423230000000004448543131204875C4
:103110006D2654656D702053656E736F72000000EC
:103120004F757465722074656D703D002E0000004F
:1031300020202020202020202020202020200000CF
:103140002054656D703D00002048756D3D00000005
:083150002020202000000000F7
:04000005080024E1EA
:00000001FF
